{
  "_format": "hh-sol-artifact-1",
  "contractName": "MockAaveLendingPool",
  "sourceName": "contracts/MockAaveLendingPool.sol",
  "abi": [
    {
      "inputs": [],
      "name": "flashLoanFeePercentage",
      "outputs": [
        {
          "internalType": "uint256",
          "name": "",
          "type": "uint256"
        }
      ],
      "stateMutability": "view",
      "type": "function"
    },
    {
      "inputs": [
        {
          "internalType": "uint256",
          "name": "_feePercentage",
          "type": "uint256"
        }
      ],
      "name": "setFlashLoanFeePercentage",
      "outputs": [],
      "stateMutability": "nonpayable",
      "type": "function"
    }
  ],
  "bytecode": "0x608060405234801561001057600080fd5b50610150806100206000396000f3fe608060405234801561001057600080fd5b50600436106100365760003560e01c80636b6b9f691461003b578063c499f8ce14610057575b600080fd5b610055600480360381019061005091906100c3565b610075565b005b61005f61007f565b60405161006c91906100ff565b60405180910390f35b8060008190555050565b60008054905090565b600080fd5b6000819050919050565b6100a08161008d565b81146100ab57600080fd5b50565b6000813590506100bd81610097565b92915050565b6000602082840312156100d9576100d8610088565b5b60006100e7848285016100ae565b91505092915050565b6100f98161008d565b82525050565b600060208201905061011460008301846100f0565b9291505056fea26469706673582212201ade314ac09da2e76515e9e540f71522d415b69678b8e273b94ec5d0d8e84f1764736f6c63430008180033",
  "linkReferences": {},
  "deployedLinkReferences": {}
}