{
  "_format": "hh-sol-artifact-1",
  "contractName": "ArbitrageEstimator",
  "sourceName": "contracts/ArbitrageEstimator.sol",
  "abi": [
    {
      "inputs": [
        {
          "internalType": "address",
          "name": "_aaveLendingPoolAddress",
          "type": "address"
        }
      ],
      "stateMutability": "nonpayable",
      "type": "constructor"
    },
    {
      "inputs": [
        {
          "internalType": "address",
          "name": "routerA",
          "type": "address"
        },
        {
          "internalType": "address",
          "name": "routerB",
          "type": "address"
        },
        {
          "internalType": "address",
          "name": "tokenIn",
          "type": "address"
        },
        {
          "internalType": "address",
          "name": "tokenOut",
          "type": "address"
        },
        {
          "internalType": "uint256",
          "name": "amountIn",
          "type": "uint256"
        },
        {
          "internalType": "uint256",
          "name": "estimatedGasCostWei",
          "type": "uint256"
        }
      ],
      "name": "estimateArbitrageProfitability",
      "outputs": [
        {
          "internalType": "uint256",
          "name": "estimatedGasCost",
          "type": "uint256"
        },
        {
          "internalType": "uint256",
          "name": "amountOutA",
          "type": "uint256"
        },
        {
          "internalType": "uint256",
          "name": "amountOutB",
          "type": "uint256"
        },
        {
          "internalType": "int256",
          "name": "potentialProfit",
          "type": "int256"
        },
        {
          "internalType": "int256",
          "name": "profitabilityPercentage",
          "type": "int256"
        }
      ],
      "stateMutability": "view",
      "type": "function"
    },
    {
      "inputs": [],
      "name": "owner",
      "outputs": [
        {
          "internalType": "address",
          "name": "",
          "type": "address"
        }
      ],
      "stateMutability": "view",
      "type": "function"
    },
    {
      "inputs": [
        {
          "internalType": "address",
          "name": "newOwner",
          "type": "address"
        }
      ],
      "name": "transferOwnership",
      "outputs": [],
      "stateMutability": "nonpayable",
      "type": "function"
    }
  ],
  "bytecode": "0x608060405234801561001057600080fd5b50604051610f6f380380610f6f8339818101604052810190610032919061011c565b336000806101000a81548173ffffffffffffffffffffffffffffffffffffffff021916908373ffffffffffffffffffffffffffffffffffffffff16021790555080600160006101000a81548173ffffffffffffffffffffffffffffffffffffffff021916908373ffffffffffffffffffffffffffffffffffffffff16021790555050610149565b600080fd5b600073ffffffffffffffffffffffffffffffffffffffff82169050919050565b60006100e9826100be565b9050919050565b6100f9816100de565b811461010457600080fd5b50565b600081519050610116816100f0565b92915050565b600060208284031215610132576101316100b9565b5b600061014084828501610107565b91505092915050565b610e17806101586000396000f3fe608060405234801561001057600080fd5b50600436106100415760003560e01c80631615e705146100465780638da5cb5b1461007a578063f2fde38b14610098575b600080fd5b610060600480360381019061005b91906106a2565b6100b4565b604051610071959493929190610757565b60405180910390f35b610082610496565b60405161008f91906107b9565b60405180910390f35b6100b260048036038101906100ad91906107d4565b6104ba565b005b60008060008060008060009054906101000a900473ffffffffffffffffffffffffffffffffffffffff1673ffffffffffffffffffffffffffffffffffffffff163373ffffffffffffffffffffffffffffffffffffffff161461014b576040517f08c379a00000000000000000000000000000000000000000000000000000000081526004016101429061085e565b60405180910390fd5b6000600267ffffffffffffffff8111156101685761016761087e565b5b6040519080825280602002602001820160405280156101965781602001602082028036833780820191505090505b50905089816000815181106101ae576101ad6108ad565b5b602002602001019073ffffffffffffffffffffffffffffffffffffffff16908173ffffffffffffffffffffffffffffffffffffffff168152505088816001815181106101fd576101fc6108ad565b5b602002602001019073ffffffffffffffffffffffffffffffffffffffff16908173ffffffffffffffffffffffffffffffffffffffff168152505060008c73ffffffffffffffffffffffffffffffffffffffff1663d06ca61f8a846040518363ffffffff1660e01b815260040161027492919061099a565b600060405180830381865afa158015610291573d6000803e3d6000fd5b505050506040513d6000823e3d601f19601f820116820180604052508101906102ba9190610b09565b9050806001815181106102d0576102cf6108ad565b5b6020026020010151955060008c73ffffffffffffffffffffffffffffffffffffffff1663d06ca61f8b856040518363ffffffff1660e01b815260040161031792919061099a565b600060405180830381865afa158015610334573d6000803e3d6000fd5b505050506040513d6000823e3d601f19601f8201168201806040525081019061035d9190610b09565b905080600181518110610373576103726108ad565b5b602002602001015195506000600160009054906101000a900473ffffffffffffffffffffffffffffffffffffffff1673ffffffffffffffffffffffffffffffffffffffff1663c499f8ce6040518163ffffffff1660e01b8152600401602060405180830381865afa1580156103ec573d6000803e3d6000fd5b505050506040513d601f19601f820116820180604052508101906104109190610b52565b90506000612710828d6104239190610bae565b61042d9190610c1f565b9050808b8a8a61043d9190610c50565b6104479190610c50565b6104519190610c50565b965060008c111561047b578b60648861046a9190610c93565b6104749190610d0b565b9550610480565b600095505b8a99505050505050965096509650965096915050565b60008054906101000a900473ffffffffffffffffffffffffffffffffffffffff1681565b60008054906101000a900473ffffffffffffffffffffffffffffffffffffffff1673ffffffffffffffffffffffffffffffffffffffff163373ffffffffffffffffffffffffffffffffffffffff1614610548576040517f08c379a000000000000000000000000000000000000000000000000000000000815260040161053f9061085e565b60405180910390fd5b600073ffffffffffffffffffffffffffffffffffffffff168173ffffffffffffffffffffffffffffffffffffffff16036105b7576040517f08c379a00000000000000000000000000000000000000000000000000000000081526004016105ae90610dc1565b60405180910390fd5b806000806101000a81548173ffffffffffffffffffffffffffffffffffffffff021916908373ffffffffffffffffffffffffffffffffffffffff16021790555050565b6000604051905090565b600080fd5b600080fd5b600073ffffffffffffffffffffffffffffffffffffffff82169050919050565b60006106398261060e565b9050919050565b6106498161062e565b811461065457600080fd5b50565b60008135905061066681610640565b92915050565b6000819050919050565b61067f8161066c565b811461068a57600080fd5b50565b60008135905061069c81610676565b92915050565b60008060008060008060c087890312156106bf576106be610604565b5b60006106cd89828a01610657565b96505060206106de89828a01610657565b95505060406106ef89828a01610657565b945050606061070089828a01610657565b935050608061071189828a0161068d565b92505060a061072289828a0161068d565b9150509295509295509295565b6107388161066c565b82525050565b6000819050919050565b6107518161073e565b82525050565b600060a08201905061076c600083018861072f565b610779602083018761072f565b610786604083018661072f565b6107936060830185610748565b6107a06080830184610748565b9695505050505050565b6107b38161062e565b82525050565b60006020820190506107ce60008301846107aa565b92915050565b6000602082840312156107ea576107e9610604565b5b60006107f884828501610657565b91505092915050565b600082825260208201905092915050565b7f6f776e657220696e76616c696400000000000000000000000000000000000000600082015250565b6000610848600d83610801565b915061085382610812565b602082019050919050565b600060208201905081810360008301526108778161083b565b9050919050565b7f4e487b7100000000000000000000000000000000000000000000000000000000600052604160045260246000fd5b7f4e487b7100000000000000000000000000000000000000000000000000000000600052603260045260246000fd5b600081519050919050565b600082825260208201905092915050565b6000819050602082019050919050565b6109118161062e565b82525050565b60006109238383610908565b60208301905092915050565b6000602082019050919050565b6000610947826108dc565b61095181856108e7565b935061095c836108f8565b8060005b8381101561098d5781516109748882610917565b975061097f8361092f565b925050600181019050610960565b5085935050505092915050565b60006040820190506109af600083018561072f565b81810360208301526109c1818461093c565b90509392505050565b600080fd5b6000601f19601f8301169050919050565b6109e9826109cf565b810181811067ffffffffffffffff82111715610a0857610a0761087e565b5b80604052505050565b6000610a1b6105fa565b9050610a2782826109e0565b919050565b600067ffffffffffffffff821115610a4757610a4661087e565b5b602082029050602081019050919050565b600080fd5b600081519050610a6c81610676565b92915050565b6000610a85610a8084610a2c565b610a11565b90508083825260208201905060208402830185811115610aa857610aa7610a58565b5b835b81811015610ad15780610abd8882610a5d565b845260208401935050602081019050610aaa565b5050509392505050565b600082601f830112610af057610aef6109ca565b5b8151610b00848260208601610a72565b91505092915050565b600060208284031215610b1f57610b1e610604565b5b600082015167ffffffffffffffff811115610b3d57610b3c610609565b5b610b4984828501610adb565b91505092915050565b600060208284031215610b6857610b67610604565b5b6000610b7684828501610a5d565b91505092915050565b7f4e487b7100000000000000000000000000000000000000000000000000000000600052601160045260246000fd5b6000610bb98261066c565b9150610bc48361066c565b9250828202610bd28161066c565b91508282048414831517610be957610be8610b7f565b5b5092915050565b7f4e487b7100000000000000000000000000000000000000000000000000000000600052601260045260246000fd5b6000610c2a8261066c565b9150610c358361066c565b925082610c4557610c44610bf0565b5b828204905092915050565b6000610c5b8261073e565b9150610c668361073e565b9250828203905081811260008412168282136000851215161715610c8d57610c8c610b7f565b5b92915050565b6000610c9e8261073e565b9150610ca98361073e565b9250828202610cb78161073e565b91507f80000000000000000000000000000000000000000000000000000000000000008414600084121615610cef57610cee610b7f565b5b8282058414831517610d0457610d03610b7f565b5b5092915050565b6000610d168261073e565b9150610d218361073e565b925082610d3157610d30610bf0565b5b600160000383147f800000000000000000000000000000000000000000000000000000000000000083141615610d6a57610d69610b7f565b5b828205905092915050565b7f4e6f2076616c6964206164647265737300000000000000000000000000000000600082015250565b6000610dab601083610801565b9150610db682610d75565b602082019050919050565b60006020820190508181036000830152610dda81610d9e565b905091905056fea264697066735822122064fe154f0496fc0570c562fda71ff9a88bc6b1e06598091639d2450a71b359cb64736f6c63430008180033",
  "linkReferences": {},
  "deployedLinkReferences": {}
}